{
  "contractName": "CrowdFund",
  "abi": [
    {
      "inputs": [
        {
          "internalType": "address",
          "name": "_token",
          "type": "address"
        },
        {
          "internalType": "uint256",
          "name": "_maxDuration",
          "type": "uint256"
        }
      ],
      "stateMutability": "nonpayable",
      "type": "constructor"
    },
    {
      "anonymous": false,
      "inputs": [
        {
          "indexed": false,
          "internalType": "uint256",
          "name": "id",
          "type": "uint256"
        }
      ],
      "name": "Cancel",
      "type": "event"
    },
    {
      "anonymous": false,
      "inputs": [
        {
          "indexed": false,
          "internalType": "uint256",
          "name": "id",
          "type": "uint256"
        }
      ],
      "name": "Claim",
      "type": "event"
    },
    {
      "anonymous": false,
      "inputs": [
        {
          "indexed": true,
          "internalType": "address",
          "name": "creator",
          "type": "address"
        },
        {
          "indexed": false,
          "internalType": "uint256",
          "name": "goal",
          "type": "uint256"
        },
        {
          "indexed": false,
          "internalType": "uint32",
          "name": "startAt",
          "type": "uint32"
        },
        {
          "indexed": false,
          "internalType": "uint32",
          "name": "endAt",
          "type": "uint32"
        }
      ],
      "name": "CreateCampaign",
      "type": "event"
    },
    {
      "anonymous": false,
      "inputs": [
        {
          "indexed": true,
          "internalType": "uint256",
          "name": "id",
          "type": "uint256"
        },
        {
          "indexed": true,
          "internalType": "address",
          "name": "caller",
          "type": "address"
        },
        {
          "indexed": false,
          "internalType": "uint256",
          "name": "amount",
          "type": "uint256"
        }
      ],
      "name": "Pledge",
      "type": "event"
    },
    {
      "anonymous": false,
      "inputs": [
        {
          "indexed": false,
          "internalType": "uint256",
          "name": "id",
          "type": "uint256"
        },
        {
          "indexed": true,
          "internalType": "address",
          "name": "caller",
          "type": "address"
        },
        {
          "indexed": false,
          "internalType": "uint256",
          "name": "amount",
          "type": "uint256"
        }
      ],
      "name": "Refund",
      "type": "event"
    },
    {
      "inputs": [
        {
          "internalType": "uint256",
          "name": "",
          "type": "uint256"
        }
      ],
      "name": "campaigns",
      "outputs": [
        {
          "internalType": "uint256",
          "name": "currNumWithdrawers",
          "type": "uint256"
        },
        {
          "internalType": "address",
          "name": "creator",
          "type": "address"
        },
        {
          "internalType": "uint256",
          "name": "goal",
          "type": "uint256"
        },
        {
          "internalType": "uint256",
          "name": "pledged",
          "type": "uint256"
        },
        {
          "internalType": "uint256",
          "name": "startAt",
          "type": "uint256"
        },
        {
          "internalType": "uint256",
          "name": "endAt",
          "type": "uint256"
        },
        {
          "internalType": "bool",
          "name": "claimed",
          "type": "bool"
        },
        {
          "internalType": "bool",
          "name": "active",
          "type": "bool"
        }
      ],
      "stateMutability": "view",
      "type": "function"
    },
    {
      "inputs": [],
      "name": "count",
      "outputs": [
        {
          "internalType": "uint256",
          "name": "",
          "type": "uint256"
        }
      ],
      "stateMutability": "view",
      "type": "function"
    },
    {
      "inputs": [],
      "name": "maxDuration",
      "outputs": [
        {
          "internalType": "uint256",
          "name": "",
          "type": "uint256"
        }
      ],
      "stateMutability": "view",
      "type": "function"
    },
    {
      "inputs": [
        {
          "internalType": "uint256",
          "name": "",
          "type": "uint256"
        },
        {
          "internalType": "address",
          "name": "",
          "type": "address"
        }
      ],
      "name": "pledgedAmount",
      "outputs": [
        {
          "internalType": "uint256",
          "name": "",
          "type": "uint256"
        }
      ],
      "stateMutability": "view",
      "type": "function"
    },
    {
      "inputs": [],
      "name": "token",
      "outputs": [
        {
          "internalType": "contract IERC20",
          "name": "",
          "type": "address"
        }
      ],
      "stateMutability": "view",
      "type": "function"
    },
    {
      "inputs": [
        {
          "internalType": "address",
          "name": "creatorId",
          "type": "address"
        },
        {
          "internalType": "uint256",
          "name": "_goal",
          "type": "uint256"
        },
        {
          "internalType": "uint32",
          "name": "startTime_",
          "type": "uint32"
        },
        {
          "internalType": "uint32",
          "name": "endTime_",
          "type": "uint32"
        }
      ],
      "name": "createCampaign",
      "outputs": [],
      "stateMutability": "nonpayable",
      "type": "function"
    },
    {
      "inputs": [
        {
          "internalType": "uint256",
          "name": "_id",
          "type": "uint256"
        }
      ],
      "name": "cancel",
      "outputs": [],
      "stateMutability": "nonpayable",
      "type": "function"
    },
    {
      "inputs": [
        {
          "internalType": "uint256",
          "name": "_id",
          "type": "uint256"
        },
        {
          "internalType": "uint256",
          "name": "_amount",
          "type": "uint256"
        }
      ],
      "name": "pledge",
      "outputs": [],
      "stateMutability": "nonpayable",
      "type": "function"
    },
    {
      "inputs": [
        {
          "internalType": "uint256",
          "name": "_id",
          "type": "uint256"
        }
      ],
      "name": "claim",
      "outputs": [],
      "stateMutability": "nonpayable",
      "type": "function"
    },
    {
      "inputs": [
        {
          "internalType": "uint256",
          "name": "_id",
          "type": "uint256"
        }
      ],
      "name": "refund",
      "outputs": [],
      "stateMutability": "nonpayable",
      "type": "function"
    }
  ],
  "bytecode": "0x60a060405234801562000010575f80fd5b506040516200205d3803806200205d833981810160405281019062000036919062000116565b8173ffffffffffffffffffffffffffffffffffffffff1660808173ffffffffffffffffffffffffffffffffffffffff16815250508060018190555050506200015b565b5f80fd5b5f73ffffffffffffffffffffffffffffffffffffffff82169050919050565b5f620000a8826200007d565b9050919050565b620000ba816200009c565b8114620000c5575f80fd5b50565b5f81519050620000d881620000af565b92915050565b5f819050919050565b620000f281620000de565b8114620000fd575f80fd5b50565b5f815190506200011081620000e7565b92915050565b5f80604083850312156200012f576200012e62000079565b5b5f6200013e85828601620000c8565b9250506020620001518582860162000100565b9150509250929050565b608051611ed4620001895f395f81816104f70152818161083b0152818161102601526111aa0152611ed45ff3fe608060405234801561000f575f80fd5b506004361061009c575f3560e01c80636db5c8fd116100645780636db5c8fd1461014957806386438cf814610167578063aa4fb63a14610183578063fc0c546a146101b3578063fde327be146101d15761009c565b806306661abd146100a0578063141961bc146100be578063278ecde1146100f5578063379607f51461011157806340e58ee51461012d575b5f80fd5b6100a86101ed565b6040516100b59190611361565b60405180910390f35b6100d860048036038101906100d391906113a8565b6101f2565b6040516100ec98979695949392919061142c565b60405180910390f35b61010f600480360381019061010a91906113a8565b61026f565b005b61012b600480360381019061012691906113a8565b6105e6565b005b610147600480360381019061014291906113a8565b610929565b005b610151610c08565b60405161015e9190611361565b60405180910390f35b610181600480360381019061017c919061150b565b610c0e565b005b61019d6004803603810190610198919061156f565b611004565b6040516101aa9190611361565b60405180910390f35b6101bb611024565b6040516101c89190611608565b60405180910390f35b6101eb60048036038101906101e69190611621565b611048565b005b5f5481565b6002602052805f5260405f205f91509050806004015490806005015f9054906101000a900473ffffffffffffffffffffffffffffffffffffffff169080600601549080600701549080600801549080600901549080600a015f9054906101000a900460ff169080600a0160019054906101000a900460ff16905088565b5f60025f8381526020019081526020015f20604051806101200160405290815f82016004806020026040519081016040528092919082600480156102fd576020028201915b815f9054906101000a900473ffffffffffffffffffffffffffffffffffffffff1673ffffffffffffffffffffffffffffffffffffffff16815260200190600101908083116102b4575b5050505050815260200160048201548152602001600582015f9054906101000a900473ffffffffffffffffffffffffffffffffffffffff1673ffffffffffffffffffffffffffffffffffffffff1673ffffffffffffffffffffffffffffffffffffffff16815260200160068201548152602001600782015481526020016008820154815260200160098201548152602001600a82015f9054906101000a900460ff16151515158152602001600a820160019054906101000a900460ff16151515158152505090508060c00151421161040a576040517f08c379a0000000000000000000000000000000000000000000000000000000008152600401610401906116b9565b60405180910390fd5b8060600151816080015110610454576040517f08c379a000000000000000000000000000000000000000000000000000000000815260040161044b90611747565b60405180910390fd5b5f60035f8481526020019081526020015f205f3373ffffffffffffffffffffffffffffffffffffffff1673ffffffffffffffffffffffffffffffffffffffff1681526020019081526020015f205490505f60035f8581526020019081526020015f205f3373ffffffffffffffffffffffffffffffffffffffff1673ffffffffffffffffffffffffffffffffffffffff1681526020019081526020015f20819055507f000000000000000000000000000000000000000000000000000000000000000073ffffffffffffffffffffffffffffffffffffffff1663a9059cbb33836040518363ffffffff1660e01b8152600401610550929190611765565b6020604051808303815f875af115801561056c573d5f803e3d5ffd5b505050506040513d601f19601f8201168201806040525081019061059091906117b6565b503373ffffffffffffffffffffffffffffffffffffffff167f21e12a7cad0da5928167e1084ea4d5fdf8d9af66657a2543a9ac76a0ca08147784836040516105d99291906117e1565b60405180910390a2505050565b5f60025f8381526020019081526020015f2090505f816005015f9054906101000a900473ffffffffffffffffffffffffffffffffffffffff1690505f5b600481101561092357825f01816004811061064157610640611808565b5b015f9054906101000a900473ffffffffffffffffffffffffffffffffffffffff1673ffffffffffffffffffffffffffffffffffffffff163373ffffffffffffffffffffffffffffffffffffffff16036106cd57825f0181600481106106a9576106a8611808565b5b015f9054906101000a900473ffffffffffffffffffffffffffffffffffffffff1691505b8173ffffffffffffffffffffffffffffffffffffffff163373ffffffffffffffffffffffffffffffffffffffff161461073b576040517f08c379a00000000000000000000000000000000000000000000000000000000081526004016107329061187f565b60405180910390fd5b82600901544211610781576040517f08c379a0000000000000000000000000000000000000000000000000000000008152600401610778906118e7565b60405180910390fd5b8260060154836007015410156107cc576040517f08c379a00000000000000000000000000000000000000000000000000000000081526004016107c39061194f565b60405180910390fd5b82600a015f9054906101000a900460ff161561081d576040517f08c379a0000000000000000000000000000000000000000000000000000000008152600401610814906119b7565b60405180910390fd5b600183600a015f6101000a81548160ff0219169083151502179055507f000000000000000000000000000000000000000000000000000000000000000073ffffffffffffffffffffffffffffffffffffffff1663a9059cbb8385600701546040518363ffffffff1660e01b8152600401610898929190611765565b6020604051808303815f875af11580156108b4573d5f803e3d5ffd5b505050506040513d601f19601f820116820180604052508101906108d891906117b6565b507f7bb2b3c10797baccb6f8c4791f1edd6ca2f0d028ee0eda64b01a9a57e3a653f7846040516109089190611361565b60405180910390a1808061091b90611a02565b915050610623565b50505050565b5f60025f8381526020019081526020015f20604051806101200160405290815f82016004806020026040519081016040528092919082600480156109b7576020028201915b815f9054906101000a900473ffffffffffffffffffffffffffffffffffffffff1673ffffffffffffffffffffffffffffffffffffffff168152602001906001019080831161096e575b5050505050815260200160048201548152602001600582015f9054906101000a900473ffffffffffffffffffffffffffffffffffffffff1673ffffffffffffffffffffffffffffffffffffffff1673ffffffffffffffffffffffffffffffffffffffff16815260200160068201548152602001600782015481526020016008820154815260200160098201548152602001600a82015f9054906101000a900460ff16151515158152602001600a820160019054906101000a900460ff16151515158152505090505f816040015190503373ffffffffffffffffffffffffffffffffffffffff168173ffffffffffffffffffffffffffffffffffffffff1614610af4576040517f08c379a0000000000000000000000000000000000000000000000000000000008152600401610aeb9061187f565b60405180910390fd5b8160a001514210610b3a576040517f08c379a0000000000000000000000000000000000000000000000000000000008152600401610b3190611a93565b60405180910390fd5b60025f8481526020019081526020015f205f8082015f610b5a919061129a565b600482015f9055600582015f6101000a81549073ffffffffffffffffffffffffffffffffffffffff0219169055600682015f9055600782015f9055600882015f9055600982015f9055600a82015f6101000a81549060ff0219169055600a820160016101000a81549060ff021916905550507f8bf30e7ff26833413be5f69e1d373744864d600b664204b4a2f9844a8eedb9ed83604051610bfb9190611361565b60405180910390a1505050565b60015481565b428263ffffffff161015610c57576040517f08c379a0000000000000000000000000000000000000000000000000000000008152600401610c4e90611b21565b60405180910390fd5b8163ffffffff168163ffffffff1611610ca5576040517f08c379a0000000000000000000000000000000000000000000000000000000008152600401610c9c90611b89565b60405180910390fd5b60015442610cb39190611ba7565b8163ffffffff161115610cfb576040517f08c379a0000000000000000000000000000000000000000000000000000000008152600401610cf290611c4a565b60405180910390fd5b5f84604051602001610d0d9190611cad565b6040516020818303038152906040528051906020012090505f815f1c905060405180610120016040528060405180608001604052805f73ffffffffffffffffffffffffffffffffffffffff1673ffffffffffffffffffffffffffffffffffffffff1681526020015f73ffffffffffffffffffffffffffffffffffffffff1673ffffffffffffffffffffffffffffffffffffffff1681526020015f73ffffffffffffffffffffffffffffffffffffffff1673ffffffffffffffffffffffffffffffffffffffff1681526020015f73ffffffffffffffffffffffffffffffffffffffff1673ffffffffffffffffffffffffffffffffffffffff1681525081526020015f81526020018273ffffffffffffffffffffffffffffffffffffffff1681526020018681526020015f81526020018563ffffffff1681526020018463ffffffff1681526020015f151581526020016001151581525060025f805481526020019081526020015f205f820151815f01906004610e899291906112b2565b50602082015181600401556040820151816005015f6101000a81548173ffffffffffffffffffffffffffffffffffffffff021916908373ffffffffffffffffffffffffffffffffffffffff160217905550606082015181600601556080820151816007015560a0820151816008015560c0820151816009015560e082015181600a015f6101000a81548160ff02191690831515021790555061010082015181600a0160016101000a81548160ff0219169083151502179055509050508560025f805481526020019081526020015f205f015f60048110610f6c57610f6b611808565b5b015f6101000a81548173ffffffffffffffffffffffffffffffffffffffff021916908373ffffffffffffffffffffffffffffffffffffffff1602179055503373ffffffffffffffffffffffffffffffffffffffff167fe8ac52f5f0386fac85ad0353629d300a2e59b6ccc9ce17605451a94cdde82af7868686604051610ff493929190611cd6565b60405180910390a2505050505050565b6003602052815f5260405f20602052805f5260405f205f91509150505481565b7f000000000000000000000000000000000000000000000000000000000000000081565b5f60025f8481526020019081526020015f20905080600801544210156110a3576040517f08c379a000000000000000000000000000000000000000000000000000000000815260040161109a90611d55565b60405180910390fd5b80600901544211156110ea576040517f08c379a00000000000000000000000000000000000000000000000000000000081526004016110e190611dbd565b60405180910390fd5b5f821161112c576040517f08c379a000000000000000000000000000000000000000000000000000000000815260040161112390611e4b565b60405180910390fd5b81816007015f82825461113f9190611ba7565b925050819055508160035f8581526020019081526020015f205f3373ffffffffffffffffffffffffffffffffffffffff1673ffffffffffffffffffffffffffffffffffffffff1681526020019081526020015f205f8282546111a19190611ba7565b925050819055507f000000000000000000000000000000000000000000000000000000000000000073ffffffffffffffffffffffffffffffffffffffff166323b872dd3330856040518463ffffffff1660e01b815260040161120593929190611e69565b6020604051808303815f875af1158015611221573d5f803e3d5ffd5b505050506040513d601f19601f8201168201806040525081019061124591906117b6565b503373ffffffffffffffffffffffffffffffffffffffff16837f06bdb975df800a73232998e71ed585d536222f1dfeaa622d7f62a23ada686c828460405161128d9190611361565b60405180910390a3505050565b505f81556001015f81556001015f81556001015f9055565b826004810192821561131d579160200282015b8281111561131c578251825f6101000a81548173ffffffffffffffffffffffffffffffffffffffff021916908373ffffffffffffffffffffffffffffffffffffffff160217905550916020019190600101906112c5565b5b50905061132a919061132e565b5090565b5b80821115611345575f815f90555060010161132f565b5090565b5f819050919050565b61135b81611349565b82525050565b5f6020820190506113745f830184611352565b92915050565b5f80fd5b61138781611349565b8114611391575f80fd5b50565b5f813590506113a28161137e565b92915050565b5f602082840312156113bd576113bc61137a565b5b5f6113ca84828501611394565b91505092915050565b5f73ffffffffffffffffffffffffffffffffffffffff82169050919050565b5f6113fc826113d3565b9050919050565b61140c816113f2565b82525050565b5f8115159050919050565b61142681611412565b82525050565b5f610100820190506114405f83018b611352565b61144d602083018a611403565b61145a6040830189611352565b6114676060830188611352565b6114746080830187611352565b61148160a0830186611352565b61148e60c083018561141d565b61149b60e083018461141d565b9998505050505050505050565b6114b1816113f2565b81146114bb575f80fd5b50565b5f813590506114cc816114a8565b92915050565b5f63ffffffff82169050919050565b6114ea816114d2565b81146114f4575f80fd5b50565b5f81359050611505816114e1565b92915050565b5f805f80608085870312156115235761152261137a565b5b5f611530878288016114be565b945050602061154187828801611394565b9350506040611552878288016114f7565b9250506060611563878288016114f7565b91505092959194509250565b5f80604083850312156115855761158461137a565b5b5f61159285828601611394565b92505060206115a3858286016114be565b9150509250929050565b5f819050919050565b5f6115d06115cb6115c6846113d3565b6115ad565b6113d3565b9050919050565b5f6115e1826115b6565b9050919050565b5f6115f2826115d7565b9050919050565b611602816115e8565b82525050565b5f60208201905061161b5f8301846115f9565b92915050565b5f80604083850312156116375761163661137a565b5b5f61164485828601611394565b925050602061165585828601611394565b9150509250929050565b5f82825260208201905092915050565b7f6e6f7420656e64656400000000000000000000000000000000000000000000005f82015250565b5f6116a360098361165f565b91506116ae8261166f565b602082019050919050565b5f6020820190508181035f8301526116d081611697565b9050919050565b7f596f752063616e6e6f742057697468647261772c2043616d706169676e2068615f8201527f7320737563636565646564000000000000000000000000000000000000000000602082015250565b5f611731602b8361165f565b915061173c826116d7565b604082019050919050565b5f6020820190508181035f83015261175e81611725565b9050919050565b5f6040820190506117785f830185611403565b6117856020830184611352565b9392505050565b61179581611412565b811461179f575f80fd5b50565b5f815190506117b08161178c565b92915050565b5f602082840312156117cb576117ca61137a565b5b5f6117d8848285016117a2565b91505092915050565b5f6040820190506117f45f830185611352565b6118016020830184611352565b9392505050565b7f4e487b71000000000000000000000000000000000000000000000000000000005f52603260045260245ffd5b7f596f7520646964206e6f742063726561746520746869732043616d706169676e5f82015250565b5f61186960208361165f565b915061187482611835565b602082019050919050565b5f6020820190508181035f8301526118968161185d565b9050919050565b7f43616d706169676e20686173206e6f7420656e646564000000000000000000005f82015250565b5f6118d160168361165f565b91506118dc8261189d565b602082019050919050565b5f6020820190508181035f8301526118fe816118c5565b9050919050565b7f43616d706169676e20646964206e6f74207375636365640000000000000000005f82015250565b5f61193960178361165f565b915061194482611905565b602082019050919050565b5f6020820190508181035f8301526119668161192d565b9050919050565b7f636c61696d6564000000000000000000000000000000000000000000000000005f82015250565b5f6119a160078361165f565b91506119ac8261196d565b602082019050919050565b5f6020820190508181035f8301526119ce81611995565b9050919050565b7f4e487b71000000000000000000000000000000000000000000000000000000005f52601160045260245ffd5b5f611a0c82611349565b91507fffffffffffffffffffffffffffffffffffffffffffffffffffffffffffffffff8203611a3e57611a3d6119d5565b5b600182019050919050565b7f43616d706169676e2068617320616c72656164792073746172746564000000005f82015250565b5f611a7d601c8361165f565b9150611a8882611a49565b602082019050919050565b5f6020820190508181035f830152611aaa81611a71565b9050919050565b7f53746172742074696d65206973206c657373207468616e2063757272656e74205f8201527f74696d652e000000000000000000000000000000000000000000000000000000602082015250565b5f611b0b60258361165f565b9150611b1682611ab1565b604082019050919050565b5f6020820190508181035f830152611b3881611aff565b9050919050565b7f456e642074696d65206973206c657373207468616e2053746172742074696d655f82015250565b5f611b7360208361165f565b9150611b7e82611b3f565b602082019050919050565b5f6020820190508181035f830152611ba081611b67565b9050919050565b5f611bb182611349565b9150611bbc83611349565b9250828201905080821115611bd457611bd36119d5565b5b92915050565b7f456e642074696d65206578636565647320746865206d6178696d756d204475725f8201527f6174696f6e20616c6c6f77656420666f7220612063616d706169676e00000000602082015250565b5f611c34603c8361165f565b9150611c3f82611bda565b604082019050919050565b5f6020820190508181035f830152611c6181611c28565b9050919050565b5f8160601b9050919050565b5f611c7e82611c68565b9050919050565b5f611c8f82611c74565b9050919050565b611ca7611ca2826113f2565b611c85565b82525050565b5f611cb88284611c96565b60148201915081905092915050565b611cd0816114d2565b82525050565b5f606082019050611ce95f830186611352565b611cf66020830185611cc7565b611d036040830184611cc7565b949350505050565b7f43616d706169676e20686173206e6f74205374617274656420796574000000005f82015250565b5f611d3f601c8361165f565b9150611d4a82611d0b565b602082019050919050565b5f6020820190508181035f830152611d6c81611d33565b9050919050565b7f43616d706169676e2068617320616c726561647920656e6465640000000000005f82015250565b5f611da7601a8361165f565b9150611db282611d73565b602082019050919050565b5f6020820190508181035f830152611dd481611d9b565b9050919050565b7f446f6e6174696f6e20616d6f756e74206d7573742062652067726561746572205f8201527f7468616e207a65726f0000000000000000000000000000000000000000000000602082015250565b5f611e3560298361165f565b9150611e4082611ddb565b604082019050919050565b5f6020820190508181035f830152611e6281611e29565b9050919050565b5f606082019050611e7c5f830186611403565b611e896020830185611403565b611e966040830184611352565b94935050505056fea2646970667358221220976a51d8f16ceb2d30cdbd8df21b535ba1fce1ee27cf8ab3f70f906df506603a64736f6c63430008150033",
  "immutableReferences": {
    "47": [
      {
        "length": 32,
        "start": 1271
      },
      {
        "length": 32,
        "start": 2107
      },
      {
        "length": 32,
        "start": 4134
      },
      {
        "length": 32,
        "start": 4522
      }
    ]
  },
  "source": "// SPDX-License-Identifier: MIT\npragma solidity ^0.8.7;\n\ninterface IERC20 {\n    function transfer(address, uint) external returns (bool);\n\n    function transferFrom(\n        address,\n        address,\n        uint\n    ) external returns (bool);\n}\n\n\n    /** \n    * @title CrowdFunding\n    * @author Nayna Siddharth, Shomini Sen, Srinath Rangan, Srikar Munukutla, Isabella Otterson, Sofia Bourche\n    * @dev Smart contract used for management of crowdfunding for school clubs. \n    */\n\ncontract CrowdFund {\n    struct Campaign {\n        address[4] approvedWithdrawers;\n        uint currNumWithdrawers;\n        address creator;\n        uint goal;\n        uint pledged;\n        uint256 startAt;\n        uint256 endAt;\n        bool claimed;\n        bool active;\n    }\n\n    IERC20 public immutable token;\n    uint public count;\n    uint public maxDuration;\n\n    //Public mapping of campaign IDs to campaign structs. \n    mapping(uint => Campaign) public campaigns;\n    mapping(uint => mapping(address => uint)) public pledgedAmount;\n\n    event CreateCampaign(\n        address indexed creator,\n        uint goal,\n        uint32 startAt,\n        uint32 endAt\n    );\n    event Cancel(uint id);\n    event Pledge(uint indexed id, address indexed caller, uint amount);\n    event Claim(uint id);\n    event Refund(uint id, address indexed caller, uint amount);\n\n    constructor(address _token, uint _maxDuration) {\n        token = IERC20(_token);\n        maxDuration = _maxDuration;\n    }\n\n    \n\n    function createCampaign(address creatorId, uint _goal, uint32 startTime_, uint32 endTime_) external {\n        //Checks for the timestamps to make sure they are valid.\n        require(startTime_ >= block.timestamp,\"Start time is less than current time.\");\n        require(endTime_ > startTime_ ,\"End time is less than Start time\");\n        require(endTime_ <= block.timestamp + maxDuration, \"End time exceeds the maximum Duration allowed for a campaign\");\n\n        //hash the ID of the campaign creator\n        \n        bytes32 hash = keccak256(abi.encodePacked(creatorId));\n        address hashedCampaignCreatorId = address(uint160(uint256(hash)));\n\n        campaigns[count] = Campaign({\n            creator: hashedCampaignCreatorId,\n            goal: _goal,\n            pledged: 0,\n            startAt: startTime_,\n            endAt: endTime_,\n            claimed: false,\n            active: true,\n            currNumWithdrawers: 0,\n            approvedWithdrawers: [address(0),address(0),address(0),address(0)]\n        });\n\n        campaigns[count].approvedWithdrawers[0] = creatorId;\n\n        emit CreateCampaign(msg.sender,_goal, startTime_ , endTime_);\n    }\n\n    function cancel(uint _id) external {\n        Campaign memory campaign = campaigns[_id];\n        address campaignCreator = campaign.creator;\n        require(campaignCreator == msg.sender, \"You did not create this Campaign\");\n        require(block.timestamp < campaign.startAt, \"Campaign has already started\");\n\n        delete campaigns[_id];\n        emit Cancel(_id);\n    }\n\n    function pledge(uint _id, uint _amount) external {\n        Campaign storage campaign = campaigns[_id];\n        require(block.timestamp >= campaign.startAt, \"Campaign has not Started yet\");\n        require(block.timestamp <= campaign.endAt, \"Campaign has already ended\");\n        require(_amount > 0, \"Donation amount must be greater than zero\");\n        campaign.pledged += _amount;\n        pledgedAmount[_id][msg.sender] += _amount;\n        token.transferFrom(msg.sender, address(this), _amount);\n\n        emit Pledge(_id, msg.sender, _amount);\n    }\n\n    function claim(uint _id) external {\n        Campaign storage campaign = campaigns[_id];\n        address currentWithdrawer = campaign.creator;\n        for (uint i = 0; i < campaign.approvedWithdrawers.length; i++) {\n            if (msg.sender == campaign.approvedWithdrawers[i]) {\n                currentWithdrawer = campaign.approvedWithdrawers[i];\n        }\n        \n\n        require(msg.sender == currentWithdrawer, \"You did not create this Campaign\");\n        require(block.timestamp > campaign.endAt, \"Campaign has not ended\");\n        require(campaign.pledged >= campaign.goal, \"Campaign did not succed\");\n        require(!campaign.claimed, \"claimed\");\n\n        campaign.claimed = true;\n        token.transfer(currentWithdrawer, campaign.pledged);\n\n        emit Claim(_id);\n    }\n    }\n\n    function refund(uint _id) external {\n        Campaign memory campaign = campaigns[_id];\n        require(block.timestamp > campaign.endAt, \"not ended\");\n        require(campaign.pledged < campaign.goal, \"You cannot Withdraw, Campaign has succeeded\");\n\n        uint bal = pledgedAmount[_id][msg.sender];\n        pledgedAmount[_id][msg.sender] = 0;\n        token.transfer(msg.sender, bal);\n\n        emit Refund(_id, msg.sender, bal);\n    }\n\n\n}",
  "sourcePath": "/Users/Nayna/Desktop/194/contracts/CrowdFund.sol",
  "compiler": {
    "name": "solc",
    "version": "0.8.21+commit.d9974bed.Emscripten.clang"
  },
  "schemaVersion": "3.4.16",
  "updatedAt": "2023-12-01T19:03:26.754Z",
  "devdoc": {
    "author": "Nayna Siddharth, Shomini Sen, Srinath Rangan, Srikar Munukutla, Isabella Otterson, Sofia Bourche",
    "details": "Smart contract used for management of crowdfunding for school clubs. ",
    "kind": "dev",
    "methods": {},
    "title": "CrowdFunding",
    "version": 1
  },
  "userdoc": {
    "kind": "user",
    "methods": {},
    "version": 1
  }
}