{
  "contractName": "Election",
  "abi": [
    {
      "inputs": [
        {
          "internalType": "uint256",
          "name": "votingDuration",
          "type": "uint256"
        }
      ],
      "stateMutability": "nonpayable",
      "type": "constructor"
    },
    {
      "inputs": [
        {
          "internalType": "uint256",
          "name": "",
          "type": "uint256"
        }
      ],
      "name": "candidate_names",
      "outputs": [
        {
          "internalType": "uint256",
          "name": "",
          "type": "uint256"
        }
      ],
      "stateMutability": "view",
      "type": "function"
    },
    {
      "inputs": [
        {
          "internalType": "uint256",
          "name": "",
          "type": "uint256"
        }
      ],
      "name": "candidates",
      "outputs": [
        {
          "internalType": "uint256",
          "name": "name",
          "type": "uint256"
        },
        {
          "internalType": "uint256",
          "name": "voteCount",
          "type": "uint256"
        },
        {
          "internalType": "bool",
          "name": "exists",
          "type": "bool"
        }
      ],
      "stateMutability": "view",
      "type": "function"
    },
    {
      "inputs": [
        {
          "internalType": "bytes32",
          "name": "",
          "type": "bytes32"
        }
      ],
      "name": "voters",
      "outputs": [
        {
          "internalType": "bool",
          "name": "voted",
          "type": "bool"
        },
        {
          "internalType": "bytes32",
          "name": "idHash",
          "type": "bytes32"
        }
      ],
      "stateMutability": "view",
      "type": "function"
    },
    {
      "inputs": [
        {
          "internalType": "uint256",
          "name": "voterId",
          "type": "uint256"
        },
        {
          "internalType": "bytes32",
          "name": "candidateName",
          "type": "bytes32"
        }
      ],
      "name": "vote",
      "outputs": [],
      "stateMutability": "nonpayable",
      "type": "function"
    },
    {
      "inputs": [
        {
          "internalType": "bool",
          "name": "time",
          "type": "bool"
        }
      ],
      "name": "winningCandidate",
      "outputs": [
        {
          "internalType": "bytes32",
          "name": "winningCandidate_",
          "type": "bytes32"
        }
      ],
      "stateMutability": "view",
      "type": "function"
    }
  ],
  "bytecode": "0x608060405234801562000010575f80fd5b5060405162000d1038038062000d1083398181016040528101906200003691906200008d565b4281620000449190620000ea565b6003819055505062000124565b5f80fd5b5f819050919050565b620000698162000055565b811462000074575f80fd5b50565b5f8151905062000087816200005e565b92915050565b5f60208284031215620000a557620000a462000051565b5b5f620000b48482850162000077565b91505092915050565b7f4e487b71000000000000000000000000000000000000000000000000000000005f52601160045260245ffd5b5f620000f68262000055565b9150620001038362000055565b92508282019050808211156200011e576200011d620000bd565b5b92915050565b610bde80620001325f395ff3fe608060405234801561000f575f80fd5b5060043610610055575f3560e01c80633477ee2e1461005957806337f91f231461008b57806351b09065146100bc57806368bb8bb6146100ec5780638223b90b14610108575b5f80fd5b610073600480360381019061006e9190610610565b610138565b60405161008293929190610664565b60405180910390f35b6100a560048036038101906100a091906106cc565b61016a565b6040516100b3929190610706565b60405180910390f35b6100d660048036038101906100d19190610610565b610195565b6040516100e3919061072d565b60405180910390f35b61010660048036038101906101019190610746565b6101b5565b005b610122600480360381019061011d91906107ae565b610382565b60405161012f91906107d9565b60405180910390f35b6001602052805f5260405f205f91509050805f015490806001015490806002015f9054906101000a900460ff16905083565b5f602052805f5260405f205f91509050805f015f9054906101000a900460ff16908060010154905082565b600281815481106101a4575f80fd5b905f5260205f20015f915090505481565b60035442106101f9576040517f08c379a00000000000000000000000000000000000000000000000000000000081526004016101f090610872565b60405180910390fd5b5f8260405160200161020b91906108b0565b6040516020818303038152906040528051906020012090505f60405180604001604052805f151581526020018381525090506001815f019015159081151581525050805f808481526020019081526020015f205f820151815f015f6101000a81548160ff021916908315150217905550602082015181600101559050505f835f1c90505f151560015f8381526020019081526020015f206002015f9054906101000a900460ff161515036103435760405180606001604052808281526020015f81526020016001151581525060015f8381526020019081526020015f205f820151815f0155602082015181600101556040820151816002015f6101000a81548160ff021916908315150217905550905050600281908060018154018082558091505060019003905f5260205f20015f90919091909150555b6001805f8381526020019081526020015f206001015461036391906108f7565b60015f8381526020019081526020015f20600101819055505050505050565b5f81156103cf576003544210156103ce576040517f08c379a00000000000000000000000000000000000000000000000000000000081526004016103c59061099a565b60405180910390fd5b5b5f8060605f5b60028054905081101561056c578360015f600284815481106103fa576103f96109b8565b5b905f5260205f20015481526020019081526020015f206001015411156104895760015f60028381548110610431576104306109b8565b5b905f5260205f20015481526020019081526020015f2060010154935060015f60028381548110610464576104636109b8565b5b905f5260205f20015481526020019081526020015f205f01545f1b94505f9250610559565b8360015f600284815481106104a1576104a06109b8565b5b905f5260205f20015481526020019081526020015f20600101540361055857846040516020016104d19190610a05565b60405160208183030381529060405260015f600284815481106104f7576104f66109b8565b5b905f5260205f20015481526020019081526020015f205f01545f1b6040516020016105229190610a05565b604051602081830303815290604052604051602001610542929190610a8b565b6040516020818303038152906040529150600192505b5b808061056490610aae565b9150506103d5565b508115816040516020016105809190610b1b565b604051602081830303815290604052906105d0576040517f08c379a00000000000000000000000000000000000000000000000000000000081526004016105c79190610b88565b60405180910390fd5b50505050919050565b5f80fd5b5f819050919050565b6105ef816105dd565b81146105f9575f80fd5b50565b5f8135905061060a816105e6565b92915050565b5f60208284031215610625576106246105d9565b5b5f610632848285016105fc565b91505092915050565b610644816105dd565b82525050565b5f8115159050919050565b61065e8161064a565b82525050565b5f6060820190506106775f83018661063b565b610684602083018561063b565b6106916040830184610655565b949350505050565b5f819050919050565b6106ab81610699565b81146106b5575f80fd5b50565b5f813590506106c6816106a2565b92915050565b5f602082840312156106e1576106e06105d9565b5b5f6106ee848285016106b8565b91505092915050565b61070081610699565b82525050565b5f6040820190506107195f830185610655565b61072660208301846106f7565b9392505050565b5f6020820190506107405f83018461063b565b92915050565b5f806040838503121561075c5761075b6105d9565b5b5f610769858286016105fc565b925050602061077a858286016106b8565b9150509250929050565b61078d8161064a565b8114610797575f80fd5b50565b5f813590506107a881610784565b92915050565b5f602082840312156107c3576107c26105d9565b5b5f6107d08482850161079a565b91505092915050565b5f6020820190506107ec5f8301846106f7565b92915050565b5f82825260208201905092915050565b7f566f74696e6720666f72207468697320656c656374696f6e20686173206578705f8201527f6972656400000000000000000000000000000000000000000000000000000000602082015250565b5f61085c6024836107f2565b915061086782610802565b604082019050919050565b5f6020820190508181035f83015261088981610850565b9050919050565b5f819050919050565b6108aa6108a5826105dd565b610890565b82525050565b5f6108bb8284610899565b60208201915081905092915050565b7f4e487b71000000000000000000000000000000000000000000000000000000005f52601160045260245ffd5b5f610901826105dd565b915061090c836105dd565b9250828201905080821115610924576109236108ca565b5b92915050565b7f5468657265206973206e6f2077696e6e65722c2073696e636520766f74696e675f8201527f20686173206e6f7420656e646564207965740000000000000000000000000000602082015250565b5f6109846032836107f2565b915061098f8261092a565b604082019050919050565b5f6020820190508181035f8301526109b181610978565b9050919050565b7f4e487b71000000000000000000000000000000000000000000000000000000005f52603260045260245ffd5b5f819050919050565b6109ff6109fa82610699565b6109e5565b82525050565b5f610a1082846109ee565b60208201915081905092915050565b5f81519050919050565b5f81905092915050565b5f5b83811015610a50578082015181840152602081019050610a35565b5f8484015250505050565b5f610a6582610a1f565b610a6f8185610a29565b9350610a7f818560208601610a33565b80840191505092915050565b5f610a968285610a5b565b9150610aa28284610a5b565b91508190509392505050565b5f610ab8826105dd565b91507fffffffffffffffffffffffffffffffffffffffffffffffffffffffffffffffff8203610aea57610ae96108ca565b5b600182019050919050565b7f546965206265747765656e3a2000000000000000000000000000000000000000815250565b5f610b2582610af5565b600d82019150610b358284610a5b565b915081905092915050565b5f601f19601f8301169050919050565b5f610b5a82610a1f565b610b6481856107f2565b9350610b74818560208601610a33565b610b7d81610b40565b840191505092915050565b5f6020820190508181035f830152610ba08184610b50565b90509291505056fea2646970667358221220c609c149f2c6f23562a8e612b81d8f663559c2d94ad4273347d508b06ce9867664736f6c63430008150033",
  "immutableReferences": {},
  "source": "// SPDX-License-Identifier: GPL-3.0\n\npragma solidity >=0.7.0 <0.9.0;\n\n/** \n * @title Election\n * @author Nayna Siddharth, Shomini Sen, Srinath Rangan, Srikar Munukutla, Isabella Otterson, Sofia Bourche\n * @dev A smart contract to be used for school elections\n */\ncontract Election {\n\n    /** \n     * @dev Voter struct that is created for each student voter. Holds the boolean and a hash of the student's ID.\n     */\n    struct Voter {\n        bool voted;  // If true, that person already voted\n        bytes32 idHash; // Hashed value of the student's id\n    }\n    \n    /** \n     * @dev Candidate struct created for each candidate running for student office. Holds the candidate name and the number of votes they currently hold.\n     */\n    struct Candidate {\n        uint256 name;   // Candidate name\n        uint voteCount; // Number of votes the candidate has received\n        bool exists;\n    }\n\n    mapping(bytes32 => Voter) public voters; // Mapping of people who have already voted\n\n    mapping(uint256 => Candidate) public candidates; //Mapping of the candidates running\n    uint256[] public candidate_names; \n\n    uint256 endTime; //When the election will end.\n\n    /** \n     * @dev Create a new ballot for a student election\n     * @param votingDuration The length of time that we would like the keep the voting open for.\n     */\n    constructor(uint256 votingDuration ) {\n\n        endTime = votingDuration + block.timestamp; //Store the time at when the election ends. \n    }\n\n    /**\n     * @dev The student with the given voterId votes for the candidate passed in.\n     * @param voterId is the student ID of the voter. Assumed that this is an integer\n     * @param candidateName the name of the candidate that the voter would like to vote for.\n     */\n    function vote(uint voterId, bytes32 candidateName) public {\n\n        //Check to make sure that the time for this election has not expired yet. If it has, call the voting end functions\n        require(block.timestamp < endTime, \"Voting for this election has expired\");\n        \n        //Calculate the hash of the voter's student ID.\n        bytes32 hashedVoterID = keccak256(abi.encodePacked(voterId));\n\n        //Check to make sure that a voter with this ID has not already voted by seeing if they exist in our mapping of voters.\n        // require(!voters[hashedVoterID].voted, \"Already voted.\");\n\n        //Create a voter object for the voter with the given voterId. Put it in storage.\n        Voter memory currentVoter = Voter({\n            idHash: hashedVoterID,\n            voted: false\n        });\n        currentVoter.voted = true;\n        //Add the voter with this student id to our lists of voters, so that we can make sure they aren't voting multiple times.\n        //Future improvement would be to give each voter multiple votes, and only add them to our list of voters once they have 0 votes left.\n        voters[hashedVoterID] = currentVoter;\n\n        uint256 name = uint256(candidateName);\n\n        //If the candidate being voted for doesn't already exist, create a candidate object for them and push them to our list of vandidates.\n        if (candidates[name].exists == false ) {\n            candidates[name] = Candidate({\n                name: name,\n                voteCount: 0,\n                exists: true\n            });\n            // candidates.push(Candidate({\n            //     name: name,\n            //     voteCount: 0,\n            //     exists: true\n            // }));\n            candidate_names.push(name);\n        }\n        //Increase the number of votes for the given candidate by 1.\n        candidates[name].voteCount = candidates[name].voteCount + 1;\n\n    }\n\n    /** \n     * @dev Return the name of the winning candidate by seeing which candidate has the most votes\n     * @return winningCandidate_ Name of the winner\n     */\n    function winningCandidate(bool time) public view\n            returns (bytes32 winningCandidate_)\n    {\n        if (time) {\n            require(block.timestamp>=endTime, \"There is no winner, since voting has not ended yet\");\n        }\n        uint maxVoteCount = 0;\n        bool tie_occured = false;\n        string memory tie;\n        for (uint i = 0; i < candidate_names.length; i++) {\n            if (candidates[candidate_names[i]].voteCount > maxVoteCount) {\n                maxVoteCount = candidates[candidate_names[i]].voteCount;\n                winningCandidate_ = bytes32(candidates[candidate_names[i]].name);\n                tie_occured = false;\n            }\n            else if (candidates[candidate_names[i]].voteCount == maxVoteCount) {\n                tie = string.concat(string(abi.encodePacked(winningCandidate_)), string(abi.encodePacked((bytes32(candidates[candidate_names[i]].name)))));\n                tie_occured = true;\n            }\n        }\n        require(!tie_occured, string.concat(\"Tie between: \", tie));\n    }\n}",
  "sourcePath": "/Users/srinathrangan/Desktop/Cal/CS 194/defiproject/contracts/VotingContract.sol",
  "compiler": {
    "name": "solc",
    "version": "0.8.21+commit.d9974bed.Emscripten.clang"
  },
  "schemaVersion": "3.4.16",
  "updatedAt": "2023-12-02T02:59:15.243Z",
  "devdoc": {
    "author": "Nayna Siddharth, Shomini Sen, Srinath Rangan, Srikar Munukutla, Isabella Otterson, Sofia Bourche",
    "details": "A smart contract to be used for school elections",
    "kind": "dev",
    "methods": {
      "constructor": {
        "details": "Create a new ballot for a student election",
        "params": {
          "votingDuration": "The length of time that we would like the keep the voting open for."
        }
      },
      "vote(uint256,bytes32)": {
        "details": "The student with the given voterId votes for the candidate passed in.",
        "params": {
          "candidateName": "the name of the candidate that the voter would like to vote for.",
          "voterId": "is the student ID of the voter. Assumed that this is an integer"
        }
      },
      "winningCandidate(bool)": {
        "details": "Return the name of the winning candidate by seeing which candidate has the most votes",
        "returns": {
          "winningCandidate_": "Name of the winner"
        }
      }
    },
    "title": "Election",
    "version": 1
  },
  "userdoc": {
    "kind": "user",
    "methods": {},
    "version": 1
  }
}