{
  "contractName": "Election",
  "abi": [
    {
      "inputs": [
        {
          "internalType": "uint256",
          "name": "votingDuration",
          "type": "uint256"
        }
      ],
      "stateMutability": "nonpayable",
      "type": "constructor"
    },
    {
      "inputs": [
        {
          "internalType": "uint256",
          "name": "",
          "type": "uint256"
        }
      ],
      "name": "candidates",
      "outputs": [
        {
          "internalType": "uint256",
          "name": "name",
          "type": "uint256"
        },
        {
          "internalType": "uint256",
          "name": "voteCount",
          "type": "uint256"
        },
        {
          "internalType": "bool",
          "name": "exists",
          "type": "bool"
        }
      ],
      "stateMutability": "view",
      "type": "function"
    },
    {
      "inputs": [
        {
          "internalType": "bytes32",
          "name": "",
          "type": "bytes32"
        }
      ],
      "name": "voters",
      "outputs": [
        {
          "internalType": "bool",
          "name": "voted",
          "type": "bool"
        },
        {
          "internalType": "bytes32",
          "name": "idHash",
          "type": "bytes32"
        }
      ],
      "stateMutability": "view",
      "type": "function"
    },
    {
      "inputs": [
        {
          "internalType": "uint256",
          "name": "voterId",
          "type": "uint256"
        },
        {
          "internalType": "bytes32",
          "name": "candidateName",
          "type": "bytes32"
        }
      ],
      "name": "vote",
      "outputs": [],
      "stateMutability": "nonpayable",
      "type": "function"
    },
    {
      "inputs": [],
      "name": "winningCandidate",
      "outputs": [
        {
          "internalType": "bytes32",
          "name": "winningCandidate_",
          "type": "bytes32"
        }
      ],
      "stateMutability": "view",
      "type": "function"
    }
  ],
  "bytecode": "0x608060405234801561000f575f80fd5b50604051610a22380380610a2283398181016040528101906100319190610080565b428161003d91906100d8565b6002819055505061010b565b5f80fd5b5f819050919050565b61005f8161004d565b8114610069575f80fd5b50565b5f8151905061007a81610056565b92915050565b5f6020828403121561009557610094610049565b5b5f6100a28482850161006c565b91505092915050565b7f4e487b71000000000000000000000000000000000000000000000000000000005f52601160045260245ffd5b5f6100e28261004d565b91506100ed8361004d565b9250828201905080821115610105576101046100ab565b5b92915050565b61090a806101185f395ff3fe608060405234801561000f575f80fd5b506004361061004a575f3560e01c80633477ee2e1461004e57806337f91f231461008057806368bb8bb6146100b1578063d28178d7146100cd575b5f80fd5b610068600480360381019061006391906104be565b6100eb565b60405161007793929190610512565b60405180910390f35b61009a6004803603810190610095919061057a565b61012c565b6040516100a89291906105b4565b60405180910390f35b6100cb60048036038101906100c691906105db565b610157565b005b6100d56103a0565b6040516100e29190610619565b60405180910390f35b600181815481106100fa575f80fd5b905f5260205f2090600302015f91509050805f015490806001015490806002015f9054906101000a900460ff16905083565b5f602052805f5260405f205f91509050805f015f9054906101000a900460ff16908060010154905082565b600254421061019b576040517f08c379a0000000000000000000000000000000000000000000000000000000008152600401610192906106b2565b60405180910390fd5b5f826040516020016101ad91906106f0565b6040516020818303038152906040528051906020012090505f808281526020019081526020015f205f015f9054906101000a900460ff1615610224576040517f08c379a000000000000000000000000000000000000000000000000000000000815260040161021b90610754565b60405180910390fd5b5f60405180604001604052805f151581526020018381525090506001815f019015159081151581525050805f808481526020019081526020015f205f820151815f015f6101000a81548160ff021916908315150217905550602082015181600101559050505f835f1c90505f1515600182815481106102a6576102a5610772565b5b905f5260205f2090600302016002015f9054906101000a900460ff1615150361034357600160405180606001604052808381526020015f815260200160011515815250908060018154018082558091505060019003905f5260205f2090600302015f909190919091505f820151815f0155602082015181600101556040820151816002015f6101000a81548160ff02191690831515021790555050505b600180828154811061035857610357610772565b5b905f5260205f2090600302016001015461037291906107cc565b6001828154811061038657610385610772565b5b905f5260205f209060030201600101819055505050505050565b5f6002544210156103e6576040517f08c379a00000000000000000000000000000000000000000000000000000000081526004016103dd9061086f565b60405180910390fd5b5f805b60018054905081101561048257816001828154811061040b5761040a610772565b5b905f5260205f20906003020160010154111561046f576001818154811061043557610434610772565b5b905f5260205f2090600302016001015491506001818154811061045b5761045a610772565b5b905f5260205f2090600302015f01545f1b92505b808061047a9061088d565b9150506103e9565b505090565b5f80fd5b5f819050919050565b61049d8161048b565b81146104a7575f80fd5b50565b5f813590506104b881610494565b92915050565b5f602082840312156104d3576104d2610487565b5b5f6104e0848285016104aa565b91505092915050565b6104f28161048b565b82525050565b5f8115159050919050565b61050c816104f8565b82525050565b5f6060820190506105255f8301866104e9565b61053260208301856104e9565b61053f6040830184610503565b949350505050565b5f819050919050565b61055981610547565b8114610563575f80fd5b50565b5f8135905061057481610550565b92915050565b5f6020828403121561058f5761058e610487565b5b5f61059c84828501610566565b91505092915050565b6105ae81610547565b82525050565b5f6040820190506105c75f830185610503565b6105d460208301846105a5565b9392505050565b5f80604083850312156105f1576105f0610487565b5b5f6105fe858286016104aa565b925050602061060f85828601610566565b9150509250929050565b5f60208201905061062c5f8301846105a5565b92915050565b5f82825260208201905092915050565b7f566f74696e6720666f72207468697320656c656374696f6e20686173206578705f8201527f6972656400000000000000000000000000000000000000000000000000000000602082015250565b5f61069c602483610632565b91506106a782610642565b604082019050919050565b5f6020820190508181035f8301526106c981610690565b9050919050565b5f819050919050565b6106ea6106e58261048b565b6106d0565b82525050565b5f6106fb82846106d9565b60208201915081905092915050565b7f416c726561647920766f7465642e0000000000000000000000000000000000005f82015250565b5f61073e600e83610632565b91506107498261070a565b602082019050919050565b5f6020820190508181035f83015261076b81610732565b9050919050565b7f4e487b71000000000000000000000000000000000000000000000000000000005f52603260045260245ffd5b7f4e487b71000000000000000000000000000000000000000000000000000000005f52601160045260245ffd5b5f6107d68261048b565b91506107e18361048b565b92508282019050808211156107f9576107f861079f565b5b92915050565b7f5468657265206973206e6f2077696e6e65722c2073696e636520766f74696e675f8201527f20686173206e6f7420656e646564207965740000000000000000000000000000602082015250565b5f610859603283610632565b9150610864826107ff565b604082019050919050565b5f6020820190508181035f8301526108868161084d565b9050919050565b5f6108978261048b565b91507fffffffffffffffffffffffffffffffffffffffffffffffffffffffffffffffff82036108c9576108c861079f565b5b60018201905091905056fea26469706673582212205eaeb76a4965a145268afe746d021554e1bbd976c2baba197aeb324d2f6b0cbf64736f6c63430008150033",
  "immutableReferences": {},
  "source": "// SPDX-License-Identifier: GPL-3.0\n\npragma solidity >=0.7.0 <0.9.0;\n\n/** \n * @title Election\n * @author Nayna Siddharth, Shomini Sen, Srinath Rangan, Srikar Munukutla, Isabella Otterson, Sofia Bourche\n * @dev A smart contract to be used for school elections\n */\ncontract Election {\n\n    /** \n     * @dev Voter struct that is created for each student voter. Holds the boolean and a hash of the student's ID.\n     */\n    struct Voter {\n        bool voted;  // If true, that person already voted\n        bytes32 idHash; // Hashed value of the student's id\n    }\n    \n    /** \n     * @dev Candidate struct created for each candidate running for student office. Holds the candidate name and the number of votes they currently hold.\n     */\n    struct Candidate {\n        uint256 name;   // Candidate name\n        uint voteCount; // Number of votes the candidate has received\n        bool exists;\n    }\n\n    mapping(bytes32 => Voter) public voters; // Mapping of people who have already voted\n\n    Candidate[] public candidates; //Mapping of the candidates running\n\n    uint256 endTime; //When the election will end.\n\n    /** \n     * @dev Create a new ballot for a student election\n     * @param votingDuration The length of time that we would like the keep the voting open for.\n     */\n    constructor(uint256 votingDuration ) {\n\n        endTime = votingDuration + block.timestamp; //Store the time at when the election ends. \n    }\n\n    /**\n     * @dev The student with the given voterId votes for the candidate passed in.\n     * @param voterId is the student ID of the voter. Assumed that this is an integer\n     * @param candidateName the name of the candidate that the voter would like to vote for.\n     */\n    function vote(uint voterId, bytes32 candidateName) public {\n\n        //Check to make sure that the time for this election has not expired yet. If it has, call the voting end functions\n        require(block.timestamp < endTime, \"Voting for this election has expired\");\n        \n        //Calculate the hash of the voter's student ID.\n        bytes32 hashedVoterID = keccak256(abi.encodePacked(voterId));\n\n        //Check to make sure that a voter with this ID has not already voted by seeing if they exist in our mapping of voters.\n        require(!voters[hashedVoterID].voted, \"Already voted.\");\n\n        //Create a voter object for the voter with the given voterId. Put it in storage.\n        Voter memory currentVoter = Voter({\n            idHash: hashedVoterID,\n            voted: false\n        });\n        currentVoter.voted = true;\n        //Add the voter with this student id to our lists of voters, so that we can make sure they aren't voting multiple times.\n        //Future improvement would be to give each voter multiple votes, and only add them to our list of voters once they have 0 votes left.\n        voters[hashedVoterID] = currentVoter;\n\n        uint256 name = uint256(candidateName);\n\n        //If the candidate being voted for doesn't already exist, create a candidate object for them and push them to our list of vandidates.\n        if (candidates[name].exists == false ) {\n            candidates.push(Candidate({\n                name: name,\n                voteCount: 0,\n                exists: true\n            }));\n        }\n        //Increase the number of votes for the given candidate by 1.\n        candidates[name].voteCount = candidates[name].voteCount + 1;\n\n    }\n\n    /** \n     * @dev Return the name of the winning candidate by seeing which candidate has the most votes\n     * @return winningCandidate_ Name of the winner\n     */\n    function winningCandidate() public view\n            returns (bytes32 winningCandidate_)\n    {\n        require(block.timestamp>=endTime, \"There is no winner, since voting has not ended yet\");\n        uint maxVoteCount = 0;\n        for (uint i = 0; i < candidates.length; i++) {\n            if (candidates[i].voteCount > maxVoteCount) {\n                maxVoteCount = candidates[i].voteCount;\n                winningCandidate_ = bytes32(candidates[i].name);\n            }\n        }\n    }\n}",
  "sourcePath": "/Users/Nayna/Desktop/194/contracts/VotingContract.sol",
  "compiler": {
    "name": "solc",
    "version": "0.8.21+commit.d9974bed.Emscripten.clang"
  },
  "schemaVersion": "3.4.16",
  "updatedAt": "2023-12-01T18:42:27.140Z",
  "devdoc": {
    "author": "Nayna Siddharth, Shomini Sen, Srinath Rangan, Srikar Munukutla, Isabella Otterson, Sofia Bourche",
    "details": "A smart contract to be used for school elections",
    "kind": "dev",
    "methods": {
      "constructor": {
        "details": "Create a new ballot for a student election",
        "params": {
          "votingDuration": "The length of time that we would like the keep the voting open for."
        }
      },
      "vote(uint256,bytes32)": {
        "details": "The student with the given voterId votes for the candidate passed in.",
        "params": {
          "candidateName": "the name of the candidate that the voter would like to vote for.",
          "voterId": "is the student ID of the voter. Assumed that this is an integer"
        }
      },
      "winningCandidate()": {
        "details": "Return the name of the winning candidate by seeing which candidate has the most votes",
        "returns": {
          "winningCandidate_": "Name of the winner"
        }
      }
    },
    "title": "Election",
    "version": 1
  },
  "userdoc": {
    "kind": "user",
    "methods": {},
    "version": 1
  }
}